:1000000012C0B5C029C028C0DBC026C025C024C08E
:1000100023C022C021C020C01FC01EC01DC01CC0E4
:100020001BC01AC019C011241FBECFEDCDBF10E0F8
:10003000A0E6B0E0ECE7F5E002C005900D92A8392B
:10004000B107D9F720E0A8E9B0E001C01D92A83AB5
:10005000B207E1F734D290C2D3CF98B38295807FB4
:100060009F70892B88BBC298C29AC2988DE08A95EE
:10007000F1F700000895CF93C82F662311F0C09ABE
:1000800001C0C098C1988C2F82958F70E6DF8C2FAD
:10009000E4DFCF91089560E0EEDF089561E0EBDFEB
:1000A000089587B3876F87BB85EA9EE00197F1F7D4
:1000B00000C0000088B3887F88BB80E094E001978F
:1000C000F1F700C0000083E0C8DF80E094E0019712
:1000D000F1F700C0000083E0C0DF80E094E001970A
:1000E000F1F700C0000083E0B8DF80E094E0019702
:1000F000F1F700C0000082E0B0DF88E2CCDF1092B0
:10010000980088E0C8DF089580919800982F946047
:10011000909398008C60BFDF0895809198008D7F48
:10012000809398008860B7DF0895611161E0E62F41
:10013000F0E0ED57FF4F9081890F8068ACDF0895A4
:10014000CF93DF93EC018881882329F02196A6DFE5
:1001500089918111FCCFDF91CF91089580B58460A2
:1001600080BD82E085BF8BB780648BBF08951F92EE
:100170000F920FB60F9211248F939F938091A60038
:100180009091A70001969093A7008093A60080917C
:10019000A2009091A30001969093A3008093A200E7
:1001A0009F918F910F900FBE0F901F9018958DE02B
:1001B0008EBD81ED93E09BBD8ABD80E489BF08952B
:1001C0001F920F920FB60F9211242F933F935F93BC
:1001D0006F937F938F939F93AF93BF938091820090
:1001E0008150809382008091A2009091A30090930F
:1001F000A5008093A4001092A3001092A200809109
:1002000082008F31C0F18EE1809382008091A60040
:100210009091A7008033904C50F080E390EC909345
:10022000A7008093A60081E080939F0002C01092F7
:100230009F008091A6009091A7002091A600309188
:10024000A70064E670E05BD1CB01880F991F860F91
:10025000971F880F991F880F991F880F991F861B5A
:10026000970B820F931F9093A1008093A000109290
:10027000A7001092A600BF91AF919F918F917F919F
:100280006F915F913F912F910F900FBE0F901F9034
:1002900018951092A7001092A6008EE1809382001C
:1002A0000895FC019081992359F031969B012F5FAD
:1002B0003F4FD90111979C9391919111F8CF01C0B3
:1002C0009B01640F711D2617370730F4F90180E296
:1002D0008193E617F707E1F70895FC013196DC01F9
:1002E0008C91882351F0662359F090E09F5F219113
:1002F000222329F09613FACF03C060E001C0692FD2
:10030000862F0895AF92BF92DF92EF92FF920F93E4
:100310001F93CF93DF937C015B01D42E122F101B10
:10032000642FDBDFE12FF0E0E095F095E80FF11DA1
:10033000EE0DFF1D95012D0D311DEE15FF05B0F1E0
:10034000112379F1DF01E9012196B7019E012250C5
:100350003109FD0131974C914A931150A617B70707
:1003600029F1DF011111F2CF1CC0DE0112972081AB
:100370002A933197EE15FF05C0F711968C911197CE
:100380008E3219F480E38C931197AA15BB05A0F067
:10039000FD013196E50180E28293EC17FD07E1F75C
:1003A0000BC08EE2D9018C93E901DFCFD9011197FF
:1003B0008EE2F9018083E1CFDF91CF911F910F9100
:1003C000FF90EF90DF90BF90AF9008950F93CF9381
:1003D000DF93F894C091A000D091A10078944AE0F6
:1003E00069E970E0CE019FD001E022E045E061E7DD
:1003F00070E089E990E086DF80919F00882351F0CA
:1004000081E29FE4ACE480937E0090937F00A09310
:10041000800028C0C43F81E0D80750F48CE69FE6F6
:10042000A7E780937E0090937F00A09380001AC07E
:10043000C83883E1D80750F48FE59FE5A1E28093A7
:100440007E0090937F00A09380000CC0C035D34CF9
:1004500048F48FE591E2A1E280937E0090937F00C3
:10046000A0938000809182004AE069E970E090E00A
:100470005AD044E064E670E089E990E012DFF89435
:100480008091A4009091A50078944AE069E970E019
:100490004AD044E06CE670E089E990E002DF60E079
:1004A00080E043DE81E790E04BDE61E080E03DDE0E
:1004B00080E690E045DEDF91CF910F910895F894AA
:1004C00086E082BB4BDE73DE7894EBDD1DDE25DE3D
:1004D00087E890E035DEC0E0D0E0819902C0D9DE47
:1004E00002C0C43109F472DF83ED90E30197F1F7A4
:1004F00000C00000CF5FC53180F3CD2FEECFAA1B27
:10050000BB1B51E107C0AA1FBB1FA617B70710F0FE
:10051000A61BB70B881F991F5A95A9F78095909530
:10052000BC01CD010895BB27FB015527AA27880FE1
:10053000991FAA1FA41710F0A41B83955051B9F757
:10054000A05DAA3308F0A95DA193009779F7B111D6
:10055000B1931192CB0100C0DC01FC01672F7191B6
:100560007723E1F7329704C07C916D937083629199
:0C057000AE17BF07C8F30895F894FFCF42
:10057C00496E743D333020206370733D39393939FD
:10058C0000202020202020207553762F6820212148
:10059C0021001E00401454496E697469616C697ABB
:0805AC00696E672E2E2E00007F
:00000001FF
